:020000040800F2
:10000000F8290120A1010008AF4100087D3B00084C
:10001000AD410008611800087B4F00080000000097
:10002000000000000000000000000000A7420008DF
:100030004519000800000000A5420008D942000848
:10004000BB010008BB010008BB010008BB010008A0
:10005000BB010008BB010008BB010008BB01000890
:10006000BB010008BB010008BB010008BB01000880
:10007000BB010008BB010008BB01000865180008AF
:1000800071180008BB0100082D170008BB0100080B
:10009000BB010008BB010008BB010008BB01000850
:1000A000BB010008BB010008BB010008BB01000840
:1000B000BB010008714900087D490008BB01000828
:1000C000BB010008BB010008BB010008BB01000820
:1000D000BB010008BB010008BB010008BB01000810
:1000E000BB010008BB010008BB010008BB01000800
:1000F000BB010008BB010008BB010008BB010008F0
:10010000BB010008BB010008BB010008BB010008DF
:10011000BB010008BB010008BB010008BB010008CF
:100120007D180008BB010008BB01000895180008F5
:10013000BB010008BB010008BB010008BB010008AF
:10014000BB010008BB010008BB010008BB0100089F
:10015000BB010008BB010008BB010008BB0100088F
:10016000BB010008BB010008BB010008BB0100087F
:10017000BB010008BB010008BB0100080000000033
:10018000BB010008BB010008DFF810D000F096FBAF
:1001900000480047118D0008AFF30080F8290120C6
:1001A0000648804706480047FEE7FEE7FEE7FEE711
:1001B000FEE7FEE7FEE7FEE7FEE7FEE77143000825
:1001C000890100082DE9F05F0546002092469B4614
:1001D00088460646814640241BE02846414647465D
:1001E000224600F034FA53465A46C01A914110D3C1
:1001F00011461846224600F01BFA2D1A67EB01083B
:100200004F4622460120002100F012FA17EB0009A8
:100210004E41201EA4F10104DFDC484631462A4647
:100220004346BDE8F09FD2B201E000F8012B491E21
:10023000FBD270470022F6E710B513460A46044683
:100240001946FFF7F0FF204610BD2DE9FE4F80460E
:1002500081EA0300C00F0C46009021F0004123F01A
:100260000045B8EB0200A94105D240462146904620
:100270001C460B46024623F00040104347D0270D92
:10028000C7F30A00C3F30A510290401A01904028B4
:100290006BDAC3F3130040F4801B0098924620B140
:1002A0000023D2EB030A63EB0B0B01985946C0F114
:1002B0004002504600F0BCF906460D4650465946ED
:1002C000019A00F0D4F910EB08006141002487EA9C
:1002D000115284EAE7731A4340D0009A62B3019A3C
:1002E000012A4FEA075215DC001B61EB02014FF0B7
:1002F000004202EA0752CDE90042001C41F580119C
:1003000032462B4600F00BFA03B0BDE8F08F4046B2
:100310002146F9E7001B61EB0201001C41F5801347
:1003200000185B412018A2F5001747EB030140EAD3
:10033000D570B6196D4111E06D084FEA360645EAF1
:10034000C0754FEA0752001B61EB0201001C41F52A
:10035000801149084FEA30000019514132462B46BE
:1003600003B0BDE8F04F00F0CBB900980122400087
:100370000023D0EB020263EBE073009821464FEAC2
:10038000E074B8EB000061EB0401E9E783F000439F
:100390005BE781F0004158E72DE9FE4F81EA030455
:1003A00004F0004421F0004100944FF0000B23F0D2
:1003B000004350EA01045ED052EA03045BD0C3F369
:1003C0000A54C1F30A552C44A4F2F3340194A0FB5F
:1003D0000254C1F3130141F48011C3F3130343F436
:1003E000801301FB024400FB034E840A970A44EA8F
:1003F000815447EA8357A4FB076802958D0A05FBE1
:1004000007854FEA932C04FB0C542705029D4FEA05
:10041000065847EA1637B5EB08056EEB070C870E52
:10042000920E47EA811742EA8312A7FB0201B6EB5C
:100430000B0164EB00042B0D43EA0C335E1844EB14
:100440001C50DA465146E7FB0201C5F313044FEA9C
:100450000B3343EA14534FEA0432019C43EA060388
:10046000A4F10C040294009CCDE900B400F057F90B
:1004700003B0BDE8F08F00200146F9E72DE9F04D0B
:1004800081EA030404F0004B21F0004514464FF0CC
:10049000000A23F0004150EA050220D054EA01028C
:1004A0001DD0C5F30A570246C5F31303C1F3130069
:1004B000C1F30A5640F4801543F48013A7EB0608F5
:1004C000101BD64608F2FD3873EB050002D308F185
:1004D000010801E092185B41B8F1000F03DA002037
:1004E0000146BDE8F08D00204FF480110646844699
:1004F0000EE0171B73EB050705D3121B63EB050317
:1005000006434CEA010C49084FEA300092185B415F
:1005100050EA0107EDD152EA030012D082EA04004A
:1005200083EA0501084305D0101BAB4106D2012226
:10053000002306E000224FF0004302E06FF00102CA
:1005400053101AEB06004CEB085110EB0A0041EB7C
:100550000B01BDE8F04D00F0D3B80EB540F23341C9
:1005600002910021CDE900110A460B4600F0D7F8B0
:1005700003B000BDC1F30A5210B5C1F3130140F23C
:10058000FF3341F480119A4201DA002010BD40F29D
:1005900033439A42A2F2334203DC524200F057F84E
:1005A00010BD904010BD00F0004230F000400AD075
:1005B000C10D01F56071C0F3160042EA0151C20895
:1005C00040071143704700200146704701F0004387
:1005D00030B421F0004150EA010206D00A0DA2F524
:1005E0006072C1F31301002A02DC30BC00207047A6
:1005F000440F44EAC104C100E01830BC00EBC25013
:1006000000F047B830B50B460146002020220124F7
:1006100009E021FA02F59D4205D303FA02F5491BD0
:1006200004FA02F52844151EA2F10102F1DC30BDE6
:10063000202A04DB203A00FA02F1002070479140A2
:10064000C2F1200320FA03F3194390407047202A97
:1006500004DB203A21FA02F00021704721FA02F36C
:10066000D040C2F120029140084319467047202A29
:1006700006DBCB17203A41FA02F043EAE07306E0CA
:1006800041FA02F3D040C2F12002914008431946DA
:1006900070470029A8BF7047401C490008BF20F0E0
:1006A0000100704710B4B0FA80FC00FA0CF050EA78
:1006B000010404BF10BC704749B1CCF1200421FAF9
:1006C00004F411FA0CF118BF012121430843A3EBF4
:1006D0000C01CB1D4FEA00614FEA102042BF002001
:1006E00010BC704700EBC35010440029A4BF10BCDD
:1006F0007047401C490008BF20F0010010BC704743
:1007000010B5141E73F1000408DA401C41F1000119
:1007100092185B411A4301D120F0010010BD2DE970
:10072000F04D92469B4611B1B1FA81F202E0B0FA67
:1007300080F220329046FFF77BFF04460F4640EAE6
:100740000A0041EA0B0153465A46084313D01146AA
:1007500053EA010019D0C8F140025046FFF777FF75
:1007600005460E46504659464246FFF761FF08438C
:1007700005D0012004E020463946BDE8F08D002078
:10078000054346EAE0762C4337430A986305E40ABA
:10079000A0EB08000022FD0A44EA47540A3002D5C3
:1007A00000200146E9E7010510196941DDE9084526
:1007B00000196941BDE8F04DA2E72DE9F04D002395
:1007C0001A461B1A8A4103DB00200146BDE8F08D62
:1007D000C1F30A52C1F3130141F480154FF0000B2D
:1007E000D10702D100186D41521E0027044640F285
:1007F000FF11384601EB620A3E4680460246002061
:100800004FF48011FFF723FFC2197141BB1846EB6B
:100810000100B4EB030C75EB000C04D3E41A65EB98
:10082000000517460E46241908F101006D41804667
:100830003428E3DDF91946EB0600091BA84103D271
:100840004FF0FF32134601E0002213461BEB070076
:1008500046EB0A51BDE8F04DFFF752BFC1F30A5213
:10086000C1F3130140F2FF3341F480119A4202DADE
:1008700000200146704740F233439A42A2F23342CD
:1008800002DC5242FFF7E3BEFFF7D2BE30B5041ED2
:1008900071F1000404DB4FF00044404264EB0101BD
:1008A000141E73F1000405DB1C464FF00043524256
:1008B00063EB0403994208BF904230BD064C074DDC
:1008C00006E0E06840F0010394E807009847103420
:1008D000AC42F6D3FFF75CFC785D0108985D010837
:1008E000F0B5F1B1002300BF02EB430C32F813E086
:1008F000BCF802C02EF0030E2CF0030C50F80E5082
:1009000050F80C6000EB0E0400EB0C0740F80E6092
:1009100040F80C507E68656802338B4266607D60EB
:10092000E2D3F0BD2DE9F04104889846164607460B
:10093000012A0D460CD1E4B3281D214690ED000A92
:100940000139B1EE400A80ED000A00F10800F5D14E
:10095000FF2C0CDDB4F5806F10DBB4F5805F22D086
:10096000B4F5006F11D0B4F5806F17D021E03F2CA3
:1009700010DC102C12D0202C07D01AE0B4F5807FA8
:1009800003D0B4F5007F0ED013E03846294600F0BE
:1009900005F90EE0402C06D0802C0AD138462946B5
:1009A00000F030F805E07A6828462146012300F07F
:1009B0009DFBB8F1000F04D0B989BA682846FFF74B
:1009C0008FFF012E1CD100EE104A002CB8EE400A19
:1009D00008BFBDE8F081B7EE001A81EE000A00BF43
:1009E00095ED001A95ED012A20EE011A22EE402A1B
:1009F00085ED001A85ED012A013C05F10805EFD1CE
:100A0000BDE8F0812DE9F0472DED028B038880468B
:100A1000084601EB830AD8F804200021B1EBD30F7C
:100A20004FEA530900F0AB80D9080AEB890C00EBC0
:100A3000890E0027C4190AEB070594ED000A95ED0D
:100A4000003A94ED011A95ED014A0EEB07030CEB09
:100A5000070694ED022A95ED025A70EE035A93EDC3
:100A6000006AD6ED001AD6ED012AD6ED023AD6ED8F
:100A7000034AC4ED005A71EE045A93ED017AC4EDB5
:100A8000015A72EE055AD3ED020AC4ED025AD4EDB2
:100A9000035AD5ED036A31EE441A35EEA68A36EED6
:100AA000214AD3ED037A84ED038A83ED004A37EEC1
:100AB000224A83ED014A30EEA34A83ED024A37EE23
:100AC000A44A83ED034AD31931EEC64A33EEE06AF5
:100AD000D3ED000AD3ED011A30EE430A32EE452A77
:100AE00032EEC75A60EE202A61EE213A21EE201A3A
:100AF00020EE210A31EE400A85ED010A24EE210A9A
:100B000025EE211A25EE205A72EEA32A24EE204A61
:100B100030EE450AC5ED002A86ED000A34EE010AE2
:100B200086ED010A93ED020A93ED031A35EEE63ADB
:100B300022EE004A23EE015A23EE003A22EE012A69
:100B400034EEE77A33EE422A85ED032A26EE012AB7
:100B500027EE011A27EE003A26EE000A34EE054A87
:100B600032EE432A30EE010A013907F1100785ED14
:100B7000024A86ED022A86ED030A7FF45BAF4946FE
:100B8000022300F0B3FAD8F8042050464946022365
:100B9000BDEC028BBDE8F04700F0A8BA2DE9F04F9C
:100BA00081B02DED088B8EB002880346500801EB12
:100BB000800505EB800691ED000A91ED011A96ED96
:100BC000002A96ED013A04935B6806EB800730EE4D
:100BD000024A30EE420A31EE032A31EE431A95ED15
:100BE000013A95ED005A0593930897ED017AD7EDF8
:100BF000000A029374EE452A72EE433A34EE054A37
:100C000032EE032A6FF0010334EE204A32EE072A57
:100C100003EB920230EE036A71EE451A30EE430A9E
:100C200031EE051A81ED004A0A9181ED012A510841
:100C300036EE476A71EEA01A72EEE02A73EEC73AFA
:100C400030EE070A31EE601A0095019603970D9178
:100C5000C10085ED006AC5ED011AC6ED002AC6ED9A
:100C6000013A87ED000A87ED011A0C9100EB400173
:100C70006FF007036FF003074FEA800E07EBC00B1E
:100C800007EB800A03EB001903EB81028C000020C4
:100C9000002500210B9100BF0A9E059B0790069539
:100CA000089406EB04080C9C311806EB040C06EBC8
:100CB0000E0491ED020A9CED022AD4ED020A30EEF8
:100CC000026AD8ED022A36EE204A34EE224A91ED2D
:100CD000031A9CED033AD4ED031AD8ED033A81EDE3
:100CE000024A94ED034A31EE037A98ED035A37EE47
:100CF000044ACDF824E034EE054A81ED034A0B990D
:100D000030EE420A31EE431A30EE212A03EB010E97
:100D100032EE634A31EE602A0D9932EE225A36EEF7
:100D2000602A37EE613A30EE610A31EE201A1F1860
:100D3000581932EE622A33EE633A30EE230A002964
:100D400031EE621A00F0CC800A998E1801EB0A038A
:100D500001EB0905594493ED007AD6ED010AD1ED76
:100D6000003A77EE202AD5ED014A72EEA35A75EECD
:100D7000A45A13ED016AD6ED001A51ED016AD5EDC2
:100D8000007AC3ED005A11ED018A76EE215A95EDF5
:100D9000009A35EE888A38EE098A03ED018A97EDCC
:100DA000028A97ED039A24EE08AA25EE09BA25EEE9
:100DB000085A24EE094A35EE444A37EE605A84ED6B
:100DC000034A36EE614A35EE666A33EEE47A36EE71
:100DD000276A74EE070A66EE091A20EE899A60EE19
:100DE000880A26EE086A3AEE0BAA71EEE00A36EEA1
:100DF000096A84ED02AAC1ED000A01ED016A90EDD5
:100E0000046AD0ED050A62EE061A23EE208A23EE6C
:100E1000063A22EE202A33EE422A8CED032A32EEE5
:100E2000E32A35EEE63A71EE881A33EE673A32EE8F
:100E3000642A0D98CCED021A62EE461A23EE066A79
:100E400023EE203A22EE202A31EEC33A32EE462A31
:100E5000013886ED013A86ED002A0D909EED062AB6
:100E60009EED073A0C9820EE026A61EE030A21EE2D
:100E7000021A20EE030A083031EE400A37EEE61A75
:100E8000DDF824E00C9088ED030A37EE440A31EED9
:100E9000451A0B9821EE034A20EE033A20EE020A8F
:100EA00036EE206A21EE021A34EE400A183088ED40
:100EB000026A85ED010A31EE030A089C0B9085ED6C
:100EC000000A069D07980EF1080E08341035083008
:100ED000A9F10809083AABF1080BAAF1080ADBE608
:100EE00097ED026A97ED037A64EE060A65EE071A3B
:100EF00025EE065A24EE074A30EEA16A35EE444A42
:100F000084ED026A84ED034A90ED044A90ED055A9F
:100F100022EE046A23EE057A23EE043A22EE052A35
:100F200036EE074A33EE422A8CED024A8CED032A54
:100F30009EED062A9EED073A029D20EE024A21EE22
:100F4000035A21EE021A20EE030A0A98059A34EE9B
:100F5000052A31EE400A2946042388ED022A88ED4D
:100F6000030A00F0C3F8049C009862682946042331
:100F700000F0BCF8626801982946042300F0B6F836
:100F800062680398294604230EB0BDEC088B01B0BB
:100F9000BDE8F04F00F0AAB82DE9F04381B02DED87
:100FA000028B0C4600219046B1EB920F054674D09F
:100FB0004FEA980795ED000A95ED011A20EE000A18
:100FC00021EE011A30EE018AB0EE480A04F047F82B
:100FD000B4EE400AF1EE10FA49D684ED000A95ED20
:100FE000020A95ED031A20EE000A21EE011A30EEF6
:100FF000018AB0EE480A04F032F8B4EE400AF1EE8D
:1010000010FA39D684ED010A95ED040A95ED051A1A
:1010100020EE000A21EE011A30EE018AB0EE480AF5
:1010200004F01DF8B4EE400AF1EE10FA29D684ED72
:10103000020A95ED060A95ED071A20EE000A21EE48
:10104000011A30EE018AB0EE480A05F1200904F1D8
:10105000100604F004F8B4EE400AF1EE10FA15D6CA
:1010600084ED030A013F4D463446A3D113E0B0EEB0
:10107000480A03F0F4FFB0E7B0EE480A03F0EFFFD0
:10108000C0E7B0EE480A03F0EAFFD0E7B0EE480A46
:1010900003F0E5FFE4E734464D4618F0030620D0A0
:1010A00095ED000A95ED011A20EE000A21EE011AD5
:1010B00030EE018AB0EE480A271D03F0D0FFB4EEEF
:1010C000400AF1EE10FA07D684ED000A013E05F160
:1010D00008053C46E4D104E0B0EE480A03F0BFFF47
:1010E000F2E7BDEC028B01B0BDE8F0832DE9F04FD3
:1010F00081B02DED108BA0B0DFED04CA009004305C
:10110000CDE902320190CDE91E1101E0F304353F33
:101110001F9A4FF0000AD308DF00A7EBD200C000EF
:101120001D904FEAC20C03EB430503EB8302580109
:1011300006931E01019B2C014FEAC20EED00CDE982
:101140000C0ECDE90A5600BF0A9D191803EB0509DC
:101150001D9D03EB0E0003EB070810ED014A8646C8
:101160009A19181903EB050B13ED011A11ED012A59
:1011700018ED013A12ED017A50ED010A59ED011A0C
:101180005BED012A31EE025A33EE046A77EE203A23
:1011900071EEA24A75EE235A76EE246A75EEA67AAF
:1011A00043ED017A75EEE65AD8ED007A9EED008A9D
:1011B00099ED00BA9BED00CAD3ED006A41ED015AEA
:1011C000D1ED005A92ED009A90ED00AA37EE88EA30
:1011D0007BEE0C8A36EEA5DA39EE0AFA35EE635A62
:1011E00036EE646A7EEE684A7DEE0F9A7DEE4F3AE7
:1011F00035EE24DA35EE645A7EEE28AA02ED01DAE5
:1012000033EEC6DA00ED015A36EE235A31EE421AB9
:1012100033EE442A37EE603A31EEE24A37EEC86ADE
:101220007BEE4C0A79EEAABA79EEEA9A72EE441A8B
:1012300032EE042A36EE604A36EE206AC3ED00BA7A
:10124000C1ED009A82ED00DA80ED005A36EEE55AE3
:1012500039EE4A7A61EEAC1A22EE2C2A24EE2C4AA0
:1012600026EE2C6A71EE210A73EE022A75EE043A1C
:1012700077EE064A31EE611A33EE422A35EE443AF1
:1012800037EE464A2646744670EEA45A70EEE40ADB
:1012900031EE045A1F9A1E9948ED015A73EEE25A34
:1012A0004BED010A72EEA30A204604ED015A33EE1B
:1012B000425ADDF834E0C8ED005ACBED000A84ED67
:1012C000005A0C9831EE441A34460B9E924409EDB4
:1012D000011A32EE031A8A45634489ED001AFFF4BD
:1012E00033AF1F984028C0F0D4810298009E80B28E
:1012F00005900698CDE90E4CC0EBC000C00000245C
:1013000001251097049000BF0598039B044403EB4C
:10131000C40191ED000A03EB04128DED1D0A92ED5C
:10132000000A04EB440203EBC2008DED1C0A90EDB1
:10133000000A03EB44118DED1B0A91ED000A04EB4A
:101340008401C80003EBC1018DED1A0A91ED000A7A
:101350004FEAC20A4FEA021B03EB02128DED190A93
:1013600092ED000AC4EBC4024FEAC40CD10003EBB7
:10137000C2028DED180A92ED000A0CF104024FEA48
:10138000041E1A448DED170A92ED000A0EF10402B4
:101390001A448DED160A92ED000A0AF104024FEA92
:1013A00044191A448DED150A92ED000A09F1040260
:1013B0001A448DED140A92ED000A043018448DEDA4
:1013C000130A90ED000A0BF1040018448DED120A87
:1013D00090ED000A081D18440994D0ED006A0796A4
:1013E000B44608952B46DDE90C54DDE90A76DDF8B4
:1013F00010808DED110A00BF10980E990CEB0509B5
:101400000CEB000E0CEB04000CEB060B0CEB010AD2
:101410000CEB07020CEB0801DCED027A99ED028A75
:101420009EED029A90ED02AA9BED02DA9AED02EA95
:1014300092ED02FAD1ED028A37EE88BA39EE0ACA85
:101440007DEE0E9A7FEE28AA7BEE29BAF0EE6C3A7A
:101450007CEE2ACA7BEEACDACCED02DA7BEEECBA9B
:10146000DCED03CAD9ED03DADEED03EAD0ED03FAD1
:101470009BED030A9AED031A92ED032A91ED033ACC
:101480003CEEAD4A3EEEAF5A30EE016A32EE037AE0
:1014900074EE060A75EE071ADDED1A4ADDED135AF1
:1014A00070EEA12A70EEE10ACCED032A64EEAB1ACD
:1014B00065EEA02A71EEA21A64EEA00A65EEAB2AD0
:1014C00070EEE20AC9ED021AC9ED030A7BEE690A61
:1014D0007CEE6A1A34EE464A35EE475A9DED1CCA38
:1014E000DDED154A30EE856A34EE617A6CEE062A3F
:1014F00024EE87BA2CEE077A24EE866A30EEC55ABF
:1015000031EE844ADDED180ADDED111A37EE466A38
:101510008BED036A20EE856A21EE847A20EE844A00
:1015200021EE855A37EE066A34EE454A39EE4A5ABC
:101530003FEE687A7EEEEF1A30EE410A32EE431A41
:101540007BEE222A35EE472A35EE073A31EEC15AB4
:1015500031EE811ACBED022A8AED026A8AED034A46
:1015600037EEC84A3DEE4E6A7CEEED0A22EE232AA3
:1015700023EE233A25EE235A21EE231AF0EE63CA16
:1015800034EE027A76EE031A70EE852A70EE017A56
:10159000DDED1D3ADDED164A37EE278A32EEE19A8F
:1015A00023EE88AA24EE89BA23EE899ADDED173A54
:1015B00037EE677A71EEA21A63EE872A66EEA17A99
:1015C00063EEA11A26EE877A24EE888A31EEC77A76
:1015D00034EE422A36EE433A30EEC54A30EE410A46
:1015E000DDED190ADDED121A39EE488A32EE001AE5
:1015F00034EE435A8EED038A81ED037A20EE816A40
:1016000021EE857A20EE855A21EE811A3AEE0BAA58
:1016100072EEA72A36EE076A35EE411A8EED02AA5F
:10162000C1ED022A80ED026A80ED031A1F9833EEA5
:10163000041A03441E989DED1B4A9DED145A32EE88
:10164000400A83420F9824EE002A25EE013A24EE48
:10165000011A25EE000A32EE032A31EE400A8444D4
:1016600082ED022A82ED030AFFF4C6AE089D0698B9
:10167000079E0135099C854206F10806FFF444AE39
:101680000298C00002901F983F2806981F903FF6CE
:101690003FAD20B0BDEC108B01B0BDE8F08F10B5B0
:1016A0000146806B026C12F0500F05D0026CD2061E
:1016B00026D500F077FA10BD016C41F40071016489
:1016C00001688A6812F0405F17D1027EAAB9CA6A1F
:1016D00012F4700F02D08A6852050ED44A6822F0C4
:1016E00020024A60016C21F480710164016CC9041C
:1016F00003D4016C41F00101016400F051FA10BD06
:10170000806BC26CBDE810400846104710B5806B76
:1017100040210164416C41F00401416400F042FA4F
:1017200010BD10B5806B00F03CFA10BD014800F010
:101730003ABA000060210120464910B54A6822F4F7
:1017400040324A604A6843681A434A6001684A68FE
:1017500022F480724A6001684A68036942EA0322FF
:101760004A6001684A6822F040724A6001684A682B
:1017700083681A434A6001688A6822F400628A60BA
:1017800001688A68C3681A438A60816A6FF0706270
:10179000D14201688A6822F070628A6001688A68B2
:1017A0000CD0836A1A438A6001688A6822F040522A
:1017B0008A6001688A68C36A1A4301E022F04052D5
:1017C0008A6001688A6822F002028A6001688A6879
:1017D000037E42EA43028A6090F8201000290168E3
:1017E0004A680FD042F400624A6001684A6822F4F5
:1017F00060424A6001684A68174C436A04EB43330D
:101800001A4301E022F400624A600168CA6A22F4C5
:101810007002CA620168CA6A838B104C04EB0353DE
:101820001A43CA6201688A6822F400728A600168F9
:101830008A6890F8303042EA43228A6001688A68F8
:1018400022F480628A6001688A68406942EA8020E6
:10185000886010BD0023014000E0FFFF0000F0FFA2
:10186000FEE70000014800F0EBBB0000302401203F
:10187000014800F0E5BB00001C22012010B5034820
:1018800000F0DEFB02490120087010BDA8210120F4
:1018900018000020014800F0D3BB0000D023012035
:1018A00001681823CAB2103AB2FBF3F2054B6FF38A
:1018B0000901032A9B5CC36500D9091D816508469F
:1018C00070470000C8BD000810B5014600208B69B4
:1018D0008A6A4FF0C07453B1B3F5005F15D072B18E
:1018E000012A0CD0022A0AD0032A09D104E01AB135
:1018F000012A06D0022A03D1C96AC90100D50120F4
:1019000010BDC96AA142FAD010BD002AF7D0012A41
:10191000F2D0022AF3D0032AF3D010BD30B5046808
:10192000256825F480252560046863608368402B62
:10193000036803D099600068C26030BD9A60006897
:10194000C16030BD70470000044940F2CF1008600C
:1019500003494FF6FF700860704700000400002044
:101960000000002072B6FEE730B5B3F5804F05D019
:101970006FF0704140F82210002030BD8C690B6878
:101980008D6823434C688989240144EA0524234354
:1019900043EA014150F82230014C23401943E9E762
:1019A0000000F0CF10B50A6850F8223023F0010390
:1019B00040F822308C68082C23D000234A68224348
:1019C000CC681C430B6922431A434B690E4C1A43E3
:1019D000CB691A430B6A1A434B6A1A438B6A1A4340
:1019E000CB6A1A430B6B1A438B691343CA6B0968A2
:1019F0001A4350F82130A343134340F8213000200C
:101A000010BD4023DAE700007FFF0F0030B5D1E9B9
:101A1000003443EA04138C688D89240244EA0544A7
:101A200023430C8A094D00EB820005EB0454234349
:101A30000C7D6D0105EB0464896923430B43416808
:101A400001F040410B434360002030BD0000F0FF37
:101A50007047000078B50024009490F83C20012ADB
:101A600019D0012280F83C200A6807230568092A5A
:101A700013D9EE680A3A02EB420293409E43EE60AD
:101A80000B788A680A3B03EB43039A400368DD68DE
:101A90002A43DA6010E0022078BD2E6902EB420290
:101AA00093409E432E610B788A6803EB43039A4070
:101AB00003681D692A431A614A681F23072A13D243
:101AC00005686E6B521E02EB820293409E436E636A
:101AD0000B790A885B1E92B203EB83039A4003687A
:101AE0005D6B2A435A6327E005680D2A12D22E6BDC
:101AF000D21F02EB820293409E432E630B790A8829
:101B0000DB1F92B203EB83039A4003681D6B2A43E9
:101B10001A6311E0EE6A0D3A02EB820293409E4393
:101B2000EE620B790A880D3B92B203EB83039A4075
:101B30000368DD6A2A43DA62164B0568144A9D423F
:101B400006D10D68122D03D1556845F48005556006
:101B500005689D4218D10B68102B01D0112B13D1B1
:101B6000536843F400035360096810290CD10A49F3
:101B70000A4A0968B1FBF2F101EB8101490000E07A
:101B8000491E00910029FBD180F83C40002078BD1F
:101B900000230140002001404800002040420F0087
:101BA00070477047704770B504460068066845681E
:101BB00016F0020F05F020012AD049B3216CC906A6
:101BC00003D4216C41F400712164816811F0405FFD
:101BD00017D1217EA9B9C16A11F4700F02D08168B2
:101BE00049050ED4416821F020014160206C20F4A9
:101BF00080702064206CC00403D4206C40F001008D
:101C000020642046FFF7CCFF21686FF012000860C7
:101C100016F0040F05F0800132D089B3206CC006A5
:101C200003D4206C40F4005020642068816811F4D3
:101C3000401F1ED1816B11F4401F02D081684905FD
:101C400017D44168490514D4816811F0405F10D160
:101C5000217E71B9416821F080014160206C20F43F
:101C600080502064206CC00503D4206C40F001003B
:101C700020642046FFF7ECFE21686FF00C0008603E
:101C800016F0010F05F040010FD071B12068006817
:101C9000C0070AD0206C40F480302064204600F059
:101CA00043F821686FF00100086016F0200F05F07E
:101CB00080610ED000290CD0606C40F0020060649E
:101CC00020686FF0200505602046FFF76BFF206855
:101CD000056070BD70B504004FF0000503D0206CA6
:101CE000002610B107E0012070BD204600F01EF86C
:101CF000666484F83C60206CC00610D4206C20F42C
:101D0000885040F0020020642046FFF715FD66640D
:101D1000206C20F0020040F00100206400E001256A
:101D200084F83C60284670BD7047000070B586B0EE
:101D3000064614216846FEF77DFA2249306888423B
:101D40003DD121480025016841F48071016000689F
:101D500000F4807005901C481438016841F00101BE
:101D600001600068694600F00100059004200090C1
:101D70000320CDE90105154800F03AFB154C144845
:101D8000C4E900050015A560C4E903504000606186
:101D90008000C4E906054FF44030C4E90805204638
:101DA00000F01EFA08B1FFF7DDFDB4630022022146
:101DB0001220A66300F084FD122000F073FD06B02F
:101DC00070BD000000200140443802400000024085
:101DD00010640240A8210120F8B5044600200E46F8
:101DE000009094F83C10012907D0012184F83C10A0
:101DF00021688B68DB0702D011E00220F8BD8B68F8
:101E000043F001038B604049404B0968B1FBF3F19B
:101E100001EB410100E0491E00910029FBD121683E
:101E20008B68DB0503D58B6823F480738B60216896
:101E30008B68DB075DD0236C40F20165AB4343F454
:101E4000807323644968490505D5216C21F400514C
:101E500041F480512164216CC90404D5616C21F0E6
:101E60000601616400E0606484F83C00A16B2948CD
:101E7000274DC863A16B28480864A16B2748C86434
:101E800021686FF0220008602068416841F080619D
:101E900041602068816841F4807181602168134647
:101EA00032464C31A06B00F005FA68681C49C00648
:101EB000206806D0884224D1816811F0405F13D099
:101EC0001FE08842F8D0174A904203D1D1F804238A
:101ED000D206F1D0144A904213D1D1F8041301F084
:101EE0001F011029E8D30CE0816841F08041816036
:101EF00007E0206C40F010002064606C40F00100AE
:101F000060640020F8BD00004800002040420F003F
:101F1000002301409F160008231700080D17000832
:101F200000200140002101400022014070B500B3B3
:101F3000F9B14379012B1ED00126467102230371AA
:101F400005682C6802F0100340F6FE729A40944334
:101F5000D1E900210A439A4022432A6001680A68B5
:101F6000C0249C40A2430A600671002141710846CA
:101F700070BD012070BD022070BD70B5040003D09B
:101F80002079002510B105E0012070BD6571204663
:101F900000F008F802202071256101202071002046
:101FA00070BD000070B586B0064614216846FEF785
:101FB00041F91E493068884236D11D480025016824
:101FC00041F000510160006800F000500590184891
:101FD0001038016841F0010101600068694600F0B5
:101FE00001000590302000900320CDE90105114843
:101FF00000F0FEF9114C104820604FF06060606006
:102000004020C4E9020500012061400060618000B9
:10201000C4E9060525622046656200F0E1F808B1D2
:10202000FFF7A0FCB460A66306B070BD007400406A
:102030004038024000000240886002401C2201201B
:102040002DE9F84304464FF00009CDF800906348AD
:102050004FF41651A56D0068B0FBF1F72E6894F8A7
:102060005C10082000FA01F131420FD021680A68A3
:1020700052070BD50A6822F004020A6094F85C103B
:102080008840A860606D40F00100606594F85C10C5
:102090004FF0010808FA01F0304208D02168496980
:1020A000090604D5A860606D40F00200606594F8F0
:1020B0005C1004208840304208D0216809688907F4
:1020C00004D5A860606D40F00400606594F85C1071
:1020D00010208840304218D021680968090714D5BB
:1020E000A86020680168490304D50068000308D58A
:1020F000A16C07E00168C90503D4016821F008015B
:102100000160216C09B12046884794F85C102020BA
:102110008840304231D021680968C9062DD5A860B1
:1021200094F8350005282068016806D0490347D592
:10213000006800031DD4616C1CE021F016010160F1
:102140002068416921F080014161206C08B9A06CD0
:1021500020B12068016821F00801016094F85C104A
:102160003F208840A86084F8358084F83490216D41
:102170001FE0E16B09B120468847606D00282BD035
:10218000606DC00714D0052084F835002068016810
:1021900021F0010101600098401C0090B84203D872
:1021A00020680068C007F6D184F8358084F8349040
:1021B000E16C002910D001B02046BDE8F04308478B
:1021C0000168C905D5D4016821F01001016084F8C7
:1021D000358084F83490CCE7BDE8F88348000020CF
:1021E0002DE9F041044600F005FA06465CB10220F4
:1021F00084F83500002584F834502068016821F007
:10220000010101600DE00120BDE8F08100F0F2F96C
:10221000801B052805D920206065032084F835003F
:10222000F2E720680068C007F0D1226811682048F2
:102230000140D4E901031843D4E90336334318437A
:1022400063691843A3691843E3691843236A184371
:102250000843616A042903D1D4E90B1319430843E5
:10226000106020684069666A20F0070130460E431E
:10227000012704280CD1A06A0643E06A40B1204639
:10228000FFF722FB20B14020606584F83570BAE783
:10229000206846612046FFF703FB94F85C203F214D
:1022A00091408160656584F835700020ACE70000DE
:1022B0003F8010F02DE9F0410446866D90F834001F
:1022C000002501280DD0012084F8340094F83570E1
:1022D0000020012F07D084F8340002252846BDE8ED
:1022E000F0810220FBE7022784F835706065204604
:1022F000FFF714FB94F85C103F208840B060206822
:10230000016841F016010160206C20B1206801686D
:1023100041F0080101602068016841F0010101609D
:10232000DCE7000070B5044600F064F90546601C67
:1023300002D004480078044400F05CF9401BA0423D
:10234000FAD370BD3C0000202DE9F04186B0142185
:102350006846FDF76FFF20480168002939D1012147
:1023600001601E480024016841F00101016000681D
:102370004FF4805800F001000C27CDF80080CDE923
:102380000470032602250396CDE9015469461448DA
:1023900000F02EF84FF68070CDE9000502AA6946DC
:1023A00082E8D0000F4800F023F84CF23370CDE9FA
:1023B000000502AA694682E8D0000B4800F018F830
:1023C00002AA694682E8D000CDE90085074800F0FE
:1023D0000FF806B0BDE8F081340000203838024024
:1023E0000014024000100240000C0240001802409D
:1023F0002DE9F84FDFF8BCA10022012503264FF09C
:102400000F090AF1040BAAF1040E00BF0B6805FACC
:1024100002F42340A34270D10F7907F00307012F84
:1024200001D0022F16D187684FEA420806FA08FC4D
:1024300027EA0C07D1F80CC00CFA08FC4CEA070C90
:10244000C0F808C04768A7430C79C4F3001494404F
:102450003C4344600C79E443A4070AD0C4684FEAC3
:10246000420C06FA0CF7BC438F6807FA0CF72743B7
:10247000C7600C7904F00304022C12D1D40800EBDD
:10248000840CDCF820405707FF0E09FA07F824EA0D
:102490000804D1F8108008FA07F848EA0408CCF8D4
:1024A000208004684FEA420C06FA0CF7BC430F790F
:1024B00007F0030707FA0CF7274307604C6814F48A
:1024C000403F70D03C4C276847F480472760246821
:1024D00022F0030704F480440094384C07EB040C0A
:1024E000DCF8084897074FEA177809FA08F7BC4361
:1024F000334FB84202D1002724E054E0314FB842B4
:1025000001D101271EE0304FB84201D1022719E066
:102510002E4FB84201D1032714E02D4FB84201D10C
:1025200004270FE02B4FB84201D105270AE02A4FBC
:10253000B84201D1062705E0284FB84201D107274C
:1025400000E0082707FA08F72743CCF80878DAF8FC
:1025500000405746D1F804C09C435FEACC2C00D51C
:102560001C433C60DBF800405F46D1F804C09C434C
:102570005FEA8C2C00D51C433C60DEF800407746B7
:10258000D1F804C09C435FEA8C3C00D51C433C60FE
:10259000084F083F3C68D1F804C09C435FEACC3C3C
:1025A00000D51C433C60521C102AFFF42FAFBDE83D
:1025B000F88F0000083C01404438024000300140E0
:1025C000000002400004024000080240000C0240EB
:1025D000001002400014024000180240001C02409B
:1025E0000069084000D0012070470AB1816170473E
:1025F0000904FBE701488068704700003C000020A8
:1026000070B5040025D094F83D00002520B984F869
:102610003C50204600F0B8F8242084F83D002068A3
:10262000016821F0010101602068016841F4004166
:1026300001602068016821F40041016000F00CFA9B
:102640004D4A6168914201D84C4900E04C498842AA
:1026500001D2012070BD4B492368B0FBF1F15E68E7
:1026600026F03F060E435E606368934206D94FF43E
:10267000967359434FF47A73B1FBF3F12368491C05
:102680001E6A26F03F06314319626168914210D8F4
:102690004900401EB0FBF1F2521CC2F30B02042AA7
:1026A00001D2042022E0B0FBF1F0401CC0F30B008B
:1026B0001CE0A268F2B301EBC10303EB0116431E59
:1026C000B3FBF6F35B1C43F480431B0549D092B384
:1026D00001EBC10202EB0111401EB0FBF1F0401C06
:1026E000C0F30B0040F4804040F400402168CA6908
:1026F0004CF6FF739A431043C861D4E907100143B5
:102700002068026822F0C00211430160D4E903018D
:1027100001432068826848F2FF339A431143816085
:10272000D4E9050108432168CA6822F0FF0210437A
:10273000C86001E00EE016E02068016841F0010188
:1027400001602564202084F83D00256384F83E5014
:10275000002070BD01EB4106431EB3FBF6F35B1C8A
:10276000B3E70120C2E701EB4101401EB0FBF1F0ED
:10277000401CC0F30B00B7E7A086010080841E0058
:1027800000093D0040420F0010B586B004461421F8
:102790006846FDF74FFD13492068884220D1124852
:1027A0000021026842F002020260006800F00200AC
:1027B0000590C02000901220CDE901010320039074
:1027C0000420049069460948FFF712FE06481030BD
:1027D000016841F400110160006800F400100590E8
:1027E00006B010BD005400403038024000040240E2
:1027F0000248816802781144816070473C000020E3
:102800000B4810B5016841F400710160016841F4A2
:1028100080610160016841F480710160032000F073
:102820006FF80F2000F006F800F024F8002010BD2B
:10283000003C024070B50D4D04464FF47A71287883
:10284000B1FBF0F00A490968B1FBF0F000F04AFC76
:1028500048B9102C07D200222146501E00F030F853
:1028600000206C6070BD012070BD00003C000020A5
:10287000480000200A4808B5016841F48041016021
:10288000006800F4804000900548001F016841F096
:1028900080510160006800F08050009008BD000089
:1028A00044380240002809DB00F01F02012191405A
:1028B0004009800000F1E020C0F8001170470000DE
:1028C000F0B40E4B1B680C46C3F30223C3F107059B
:1028D000042D00D90425191D072901D2002300E089
:1028E000DB1E012606FA05F1491E214099409E4053
:1028F000761E16403143F0BC02F064BB0CED00E0E4
:10290000064900F0070208684FF6FF03184040EA46
:102910000220034A10430860704700000CED00E0FD
:102920000000FA052DE9F0470E46050065D0DFF8F6
:102930001481D8F80000F7B200F00700B04207D2C7
:1029400088F80070D8F8000000F00700B04254D1B9
:1029500028683D4C810712D5400703D5206840F414
:10296000E05020602878000703D5206840F46040DC
:1029700020602068A96820F0F000084320602878D3
:10298000C0072DD0304968680839012812D00228C4
:1029900013D0032811D00968890700292DDA21688E
:1029A00021F0030101432160FFF724FE814641F23B
:1029B000883A0EE009688903EFE709688901ECE7C6
:1029C000FFF718FEA0EB0901514502D90320BDE82D
:1029D000F0872068696800F00C00B0EB810FEFD140
:1029E000D8F80010404601F00701B14207D907703E
:1029F000006800F00700B04201D00120E7E7287826
:102A0000400705D52068E96820F4E05008432060BD
:102A10002878000706D52068296920F4604040EA3C
:102A2000C100206000F038F82168084AC1F30311A2
:102A3000515CC8400649086006480068FFF7FAFE86
:102A40000020C4E7003C024008380240D0BD000826
:102A5000480000204000002004480549006809683B
:102A6000044AC1F38221515CC840704748000020ED
:102A700008380240E0BD00080448054900680968BC
:102A8000044AC1F34231515CC840704748000020FD
:102A900008380240E0BD0008154810B5006810F085
:102AA0000C02144813D01449042A0FD0082A0ED15E
:102AB0000F4C241F2268236802F03F025B0207D5F7
:102AC0002068C0F38810A0FB010106E0084610BD95
:102AD0002168C1F38811A1FB00010023FDF772FBFF
:102AE0002168C1F30141491C4900B0FBF1F010BD60
:102AF000083802400024F40040787D012DE9F84FA9
:102B000004006ED02078DFF84C93C007A9F10405CB
:102B10004AD009F104000168C1F38101012908D0FC
:102B20000068C0F3810002280AD1D9F800004002F1
:102B300006D52868800337D560680028E1D033E0E7
:102B40006068B0F5803F10D0B0F5A02F286810D095
:102B500020F480302860286820F480202860606895
:102B6000A8B1FFF747FD06460DE0286840F4803025
:102B7000F4E740F480202860F7E700BFFFF73AFD54
:102B8000801B642873D828688003F7D50CE0FFF712
:102B900031FD064605E000BFFFF72CFD801B6428D1
:102BA000F0D828688003F7D42078DFF8AC8280075B
:102BB0004FF0000A3ED5A748001D016811F00C0F28
:102BC00008D00068C0F3810002280BD1D9F80000BA
:102BD000400207D42868800716D5E068012800D194
:102BE00012E033E1E068B8B10120C8F80000FFF757
:102BF00001FD064605E000BFFFF7FCFC801B022834
:102C0000C0D828688007F7D52868216920F0F80027
:102C100040EAC10028600DE0C8F800A0FFF7EAFC18
:102C2000064604E0FFF7E6FC801B02281FD8286850
:102C30008007F7D42078000722D5864F874861693E
:102C4000703771B101210160FFF7D4FC064604E042
:102C5000FFF7D0FC801B022809D838688007F7D519
:102C60000EE0C0F800A0FFF7C5FC064605E082E0D4
:102C7000FFF7C0FC801B02287DD838688007F7D496
:102C80002078400768D5DFF8CCB100270BF13C0B6A
:102C9000DBF80000C0000BD4DBF8001041F08051DD
:102CA000CBF80010DBF80000012700F08050009006
:102CB0006B4E3068C00510D4306840F480703060CE
:102CC000FFF798FC009005E0FFF794FC0099401A8C
:102CD000022850D83068C005F6D55E4EA0686C3624
:102CE00001280FD00528306810D020F00100306096
:102CF000306820F004003060A068B8B1FFF77AFCBB
:102D000000900FE0306840F00100F4E740F004006C
:102D10003060F7E7FFF76EFC0099411A41F2883006
:102D2000814266D830688007F4D50EE0FFF762FC78
:102D3000009007E0FFF75EFC0099411A41F28830ED
:102D4000814256D830688007F4D42FB1DBF80010E8
:102D500021F08051CBF80010A069C8B33D49091D8E
:102D60000968C1F3810102294AD00228504607D0E0
:102D7000C8F8600000E03CE0FFF73CFC04463BE0A4
:102D80004746C8F86000FFF735FC064605E000BF7F
:102D9000FFF730FC801B02282BD828688001F7D46D
:102DA000D4E907010843A16A2E4A490802EB014110
:102DB000626A41EA8211084394F82C1040EA0161EA
:102DC000C9F8001001203866FFF714FC044606E03D
:102DD0003EE000BFFFF70EFC001B022809D8286860
:102DE0008001F7D534E000BFFFF704FC001B022888
:102DF00002D90320BDE8F88F28688001F4D427E0C9
:102E00000128F7D0D9F80000E26900F4800191426E
:102E10001CD1226A00F03F01914217D147F6C071E0
:102E2000626A0140B1EB821F10D1A26A4FF0FF33FA
:102E300000F4403103EB5202B1EB024F06D194F89B
:102E40002C1000F07060B0EB016F01D00120D1E7D1
:102E50000020CFE70438024000004742800E47427E
:102E6000007000400000FFFF70B5040009D0606AE8
:102E7000002540B125616561A56294F8510040B11B
:102E80000CE0012070BD6068B0F5827FF4D0E56190
:102E9000F2E784F85050204600F044F8022084F80D
:102EA00051002068016821F040010160A08821895B
:102EB00000F4827001F404410843A18901F4006127
:102EC0000843217C01F002010843217D01F001014A
:102ED0000843218B01F400710843217F01F0380180
:102EE000084394F8201001F080010843218D01F47B
:102EF0000051084321680860A069042101EA1040DC
:102F000094F8241001F010010843216848602068FB
:102F1000C16921F40061C1616565012084F8510037
:102F2000002070BD2DE9F04F87B00546142168469A
:102F3000FDF780F94A4A296800244A4803270526F4
:102F40004FF002084FF008094FF0400B4FF4806A31
:102F5000914240D1434914310A6842F480520A60D8
:102F6000096801F480510591016841F00101016097
:102F7000016801F001010591016841F00201016061
:102F80000068CDE9024700F0020005908020CDE9FD
:102F90000008694604963448FFF72AFACDE902474B
:102FA000CDE90098694631480496FFF721FA314E81
:102FB0002F483060C6E9034A7461B461F461346239
:102FC00078067462C6E9010B304641E0AE64B56331
:102FD00007B0BDE8F08F284A9142F9D1214910315C
:102FE0000A6842F480420A60096801F48041059150
:102FF000016841F004010160016801F004010591DC
:10300000016841F0020101600068CDE9024700F06B
:103010000200CDE90460CDE9009869461748FFF742
:10302000E7F9CDE90247CDE900A8D14669460F4846
:103030000496FFF7DDF90F4E1148603686E8110857
:10304000C6E903497461B461F46134623046746264
:10305000FFF7C6F80028B9D0FEF784FCB6E70000F9
:1030600000300140303802400000024000040240BD
:1030700058640240D023012000380040000802407C
:103080007060024070B515460E46040003D094F8F7
:10309000490010B107E0012070BD002084F848000D
:1030A000204600F01DF804F108012068FEF77AFCC4
:1030B0003146A2682068FEF7A9FCD4E9010229463E
:1030C000236BFEF751FC2168A06851F8202042F0E4
:1030D000010241F82020012084F84900002070BD41
:1030E000FFF732B910B5401EB0F1807F01D3012047
:1030F00010BD4FF0E02460610F21601701F062FF06
:103100000020A06107202061002010BD704770479B
:1031100070B590F83C20012A32D0012480F83C4060
:10312000022280F83D2003685A689D6822F07006EC
:103130000A6832435A60134B02689A4214D0B2F1C3
:10314000804F11D0104B9A420ED0104B9A420BD0A8
:103150000F4B9A4208D00F4B9A4205D00E4B9A4221
:1031600002D00E4B9A4204D1496825F080031943DE
:10317000916080F83D40002180F83C10084670BD09
:10318000022070BD00000140000400400008004023
:10319000000C0040000401400040014000180040C5
:1031A00010B5040003D094F83D0010B107E00120F1
:1031B00010BD002084F83C00204600F01FF80220DB
:1031C00084F83D00211D206801F0DEFB012084F819
:1031D000460084F83E0084F83F0084F8400084F8FC
:1031E000410084F8420084F8430084F8440084F8E5
:1031F000450084F83D00002010BD000030B587B0C8
:10320000044614216846FDF715F821680024334868
:10321000B1F1804F38D0324A91423DD1016841F03E
:1032200002010160006800F0020005902B48103890
:10323000016841F001010160016801F0010105919F
:10324000016841F0040101600068022500F00400FB
:10325000059040200090CDE9015469462148CDE910
:103260000345FFF7C5F880200090CDE90154694679
:103270001D48CDE90345FFF7BBF8002211461D208C
:10328000FFF71EFB1D2018E0016841F001010160FD
:10329000006800F001001EE0144A914211D101685B
:1032A00041F0040101600068002200F00400059074
:1032B00011461E20FFF704FB1E20FFF7F3FA07B0AC
:1032C00030BD0B4A9142FAD1016841F0080101601A
:1032D000006800F008000590F1E700004038024067
:1032E00000040040000002400008024000080040C6
:1032F000000C004090F83D10012901D001207047DA
:10330000022180F83D1000681149884214D0B0F1C4
:10331000804F11D00F4988420ED00F4988420BD000
:103320000E49884208D00E49884205D00D4988428E
:1033300002D00D49884204D1816801F007010629B5
:1033400003D0016841F001010160002070470000D6
:10335000000001400004004000080040000C004054
:1033600000040140004001400018004070B50446D0
:1033700090F83C000025012817D0012684F83C6015
:10338000022084F83D002068826822F0770222F44F
:103390007F4282600868502838D00DDC20284FD04A
:1033A00005DC90B3102811D14AE0022070BD30280E
:1033B00046D040280AD13BE060282FD070280DD09D
:1033C000B0F5805F03D0B0F5005F12D0012584F81E
:1033D0003D60002084F83C00284670BDCB68D1E9F0
:1033E0000121206801F049FB2068816841F07701E4
:1033F00009E0CB68D1E90121206801F03EFB20689B
:10340000816841F480418160E1E719E0CA68496858
:10341000206801F04DFC5021206806E0CA68496828
:10342000206801F097FC6021206801F030FBCEE7B6
:10343000CA684968206801F03BFC40212068F4E735
:10344000226801461046F0E770B50546007F124C31
:1034500001280FD10021114800F097FA00EE100A60
:10346000B8EE400A84ED040AD4ED050A80EE801A15
:1034700084ED061A287F022809D10421074800F0AC
:1034800084FA00EE100AB8EE400A84ED050ABDE8A1
:10349000704000F08DBE000018000020D8240120EC
:1034A0002DE9F041054690F83C0000260C46012825
:1034B00010D0012085F83C0072B1042A1CD0082AE3
:1034C0002CD00C2A50D00126002085F83C00304634
:1034D000BDE8F0810220FBE7D4E90012E368286828
:1034E00001F0F8FB2868816921F00C0181612868EE
:1034F0008169A26811430FE0D4E90012E3682868EB
:1035000001F03AFC2868816921F4406181612868F2
:103510008169A26841EA02218161D5E72868D4E97E
:10352000002C277B036A016A21F480710162C16962
:1035300023F4206321F0030141EA0C0121F0F00C97
:1035400039074FF420674CEA116107EA02221A4357
:10355000C16102622868C16921F00C01C16128685B
:10356000C169A26811432BE02868D4E90021E7680B
:10357000036AD0F820C02CF4805CC0F820C0D0F8DA
:103580001CC023F420432CF4407C4CEA012121F49C
:10359000704C4FF6FF7101EA07314FF4204741EAC2
:1035A0000C0107EA02321A43C16102622868C1694C
:1035B00021F44061C1612868C169A26841EA022121
:1035C000C16181E710B5040003D094F83D0010B14B
:1035D00007E0012010BD002084F83C00204600F0E8
:1035E0001EF8022084F83D00211D206801F0CCF96E
:1035F000012084F8460084F83E0084F83F0084F8F7
:10360000400084F8410084F8420084F8430084F8C4
:10361000440084F8450084F83D00002010BD704748
:1036200030B50446002551B104290DD0082910D029
:1036300094F8410094F84520012811D10EE094F847
:103640003E0094F84220F7E794F83F0094F84320B6
:10365000F2E794F8400094F84420EDE7012A01D005
:10366000012030BD022059B1042912D0082919D0F7
:1036700084F8410084F845000C2944D0012540E03D
:1036800084F83E0084F842002068C26842F00202DA
:1036900010E084F83F0084F843002068C26842F0DC
:1036A000040207E084F8400084F844002068C268FF
:1036B00042F00802C2600122206801F0D1F91449E9
:1036C0002068884214D0B0F1804F11D0114988424F
:1036D0000ED0114988420BD01049884208D01049B9
:1036E000884205D00F49884202D00F49884204D150
:1036F000816801F00701062903D0016841F001014A
:103700000160284630BD2068C26842F01002D1E74F
:10371000000001400004004000080040000C004090
:103720000004014000400140001800402DE9F04134
:1037300004460068C66805694FF00007A90713D55D
:10374000B10711D5F91E0161012020772068806939
:103750008007204602D0FFF777FE04E000F07EF8F5
:10376000204600F010F92777680716D5700714D5A2
:1037700021686FF0040008610220207720688069CA
:1037800010F4407F204602D0FFF75EFE04E000F018
:1037900065F8204600F0F7F82777280715D5300799
:1037A00013D521686FF00800086104202077206895
:1037B000C0698007204602D0FFF746FE04E000F013
:1037C0004DF8204600F0DFF82777E80616D5F0061A
:1037D00014D521686FF01000086108202077206858
:1037E000C06910F4407F204602D0FFF72DFE04E0B0
:1037F00000F034F8204600F0C6F82777E80708D034
:10380000F00706D021686FF001000861204600F043
:10381000BBF8280608D5300606D521686FF0800071
:1038200008612046FFF772FC680608D5700606D5C9
:1038300021686FF040000861204600F0E6F8A80615
:103840000AD5B00608D521686FF02000086120462F
:10385000BDE8F041FFF75BBCBDE8F081704770B593
:10386000044690F83C0000260D4601280FD00120A8
:1038700084F83C006AB1042A1DD0082A2FD00C2AF3
:103880003FD00126002084F83C00304670BD022065
:1038900070BD206801F004F92068816941F00801D9
:1038A00081612068816921F004018161206881695A
:1038B0002A69114311E0206801F022F9206881692A
:1038C00041F4006181612068816921F48061816136
:1038D000206881692A6941EA02218161D2E7206872
:1038E00001F044F92068C16941F00801C161206814
:1038F000C16921F00401C1612068C1692A691143CD
:1039000011E0206801F066F92068C16941F40061A6
:10391000C1612068C16921F48061C1612068C16909
:103920002A6941EA0221C161ACE710B5040003D065
:1039300094F83D0010B107E0012010BD002084F88C
:103940003C00204600F01EF8022084F83D00211DB6
:10395000206801F019F8012084F8460084F83E0040
:1039600084F83F0084F8400084F8410084F8420065
:1039700084F8430084F8440084F8450084F83D004E
:10398000002010BD7047704770470246002041B1CB
:10399000042909D008290AD00C2901D11068006C2B
:1039A00070471068406B70471068806B70471068F4
:1039B000C06B704770B5044690F83C00012812D0E7
:1039C000012584F83C50022084F83D00204601F097
:1039D00029F901004FF0000007D084F83D5084F829
:1039E0003C00012070BD022070BD2168CA6822F031
:1039F0004002CA602168CA6822F48042CA6084F822
:103A00003D5084F83C00002070BD704770B5040044
:103A100004D094F84100002510B106E0012070BDEB
:103A200084F84050204600F023F8242084F8410018
:103A30002068C16821F40051C160204601F0DEF920
:103A40002068016921F4904101612068416921F0F9
:103A50002A0141612068C16841F40051C160656478
:103A6000202084F8410084F842006563002070BD86
:103A700010B586B0044614216846FCF7DBFB1449F8
:103A80002068884221D113480021026842F01002C8
:103A90000260006800F0100005900E4814380268BB
:103AA00042F001020260006800F0010005904FF44E
:103AB000C06000900220CDE901010320039007209F
:103AC000049069460448FEF793FC06B010BD000060
:103AD0000010014044380240000002402DE9F84344
:103AE000044690F84100984616460D46202802D01C
:103AF0000220BDE8F88385B17EB1002060642120FA
:103B000084F84100FEF776FDA6848146E684A0682D
:103B10002027B0F5805F02D003E00120E9E72069AB
:103B200010B12E4600250EE000260CE08021204634
:103B300001F0EAF9A8B9C6B116F8010B216848608E
:103B4000E08C401EE084E08C4B464FF00002CDF844
:103B500000800028EAD14FF04001204601F0D4F95E
:103B600040B184F841700320C3E735F8020BC0F37D
:103B70000800E3E784F841700020BAE7FEE72DE98A
:103B8000F04128254FF6FF764FF4C878EC000A275D
:103B900032463946284602F0FBF80A37BFB2A74240
:103BA000F6D32835ADB24746BD42F0D32825A0460E
:103BB0000A2432462946204602F0EAF80A34A4B222
:103BC000BC42F6D32835ADB24545F1D3BDE8F0810E
:103BD0007FB500241648009401940294134903947D
:103BE00001604FF48031C0E901140461047680F86B
:103BF00020400903C1620125C5614FF0C061C46066
:103C0000816280F830504561FEF764F808B1FDF735
:103C1000A9FE0220CDE90005694602940448FDF79B
:103C200019FF002801D0FDF79DFE7FBD0020014057
:103C3000602101201CB50024124900941048019411
:103C400008600846FEF799F908B1FDF78BFE1C20C5
:103C5000009002200190002269460A48FEF766F9AA
:103C600008B1FDF77FFE00941022694605480194D3
:103C7000FEF75CF9002801D0FDF774FE1CBD0000C2
:103C80000074004008220120194808B5016841F479
:103C900080010160016801F480010091016841F434
:103CA000001101600068002200F40010009011462D
:103CB0000F20FEF705FE0F20FEF7F4FD002211464F
:103CC0001020FEF7FDFD1020FEF7ECFD002211464E
:103CD0003820FEF7F5FD3820FEF7E4FD00221146FE
:103CE0003B20FEF7EDFDBDE808403B20FEF7DABDC6
:103CF0003038024010B58EB01C216846FCF79AFAA5
:103D00001C2107A8FCF796FA1A484FF02041102210
:103D1000016019494160062181600021C160C0E94C
:103D200004128161C16113020162C0E909139302A7
:103D3000C0E90B134163816341640F203C23009071
:103D4000CDE9010303AC112384E80E000924069198
:103D5000CDE907400AA8099480E80E000D9107AA52
:103D600069460448FFF78EF9002801D0FDF7FAFDF7
:103D70000EB010BD7C220120040100A02DE9F0410D
:103D800086B014216846FCF755FA374800240168CC
:103D900041F010010160016801F010010591016816
:103DA00041F004010160016801F00401059101681E
:103DB00041F020010160016801F0200105910168D6
:103DC00041F080010160016801F080010591016806
:103DD00041F001010160016801F0010105910168F4
:103DE00041F002010160016801F0020105910168E2
:103DF00041F008010160016801F0080105910168C6
:103E000041F0400101600068184F00F0400040F2AE
:103E10007F450590002229463846FEF7E6FBDFF88D
:103E200050804FF42046002231464046FEF7DDFB2D
:103E30001820CDE9000469460E480294FEF7D8FA2E
:103E400000950125CDE90154694638460394FEF7F3
:103E5000CFFA0096CDE90154694640460394FEF737
:103E6000C7FA06B0BDE8F0813038024000140240C5
:103E700000040240001002400D4810B50B490160DB
:103E80000C49416000214FF480428160C0E9031277
:103E900041618161C1610162FEF7B2FB002803D07C
:103EA000BDE81040FDF75EBD10BD000000540040AD
:103EB000CC220120A08601000F4810B50D490160F9
:103EC0004FF48271416000218160C1604FF4007243
:103ED0000161C0E90512C1610162416281620A218A
:103EE000C162FEF7C1FF002803D0BDE81040FDF716
:103EF00039BD10BD00300140202301200F4810B50E
:103F00000D4901604FF48271416000218160C16000
:103F10004FF400720161C0E90512C16101624162A2
:103F200081620A21C162FEF79FFF002803D0BDE82D
:103F30001040FDF717BD10BD003800407823012068
:103F400010B58EB000240794089409940A940B9439
:103F50001C2168460C94FCF76DF91E484FF0804117
:103F6000016040F29911C0E901140721C0E903146E
:103F700080218161FFF714F908B1FDF7F3FC4FF4DC
:103F80008050079007A91348FFF7F0F908B1FDF733
:103F9000E9FC1048FFF7C9FC08B1FDF7E3FC50202D
:103FA000CDE90B040BA90B48FFF7B2F808B1FDF7F8
:103FB000D9FC602000900120CDE90104042269466B
:103FC00004480494FFF74BFC002801D0FDF7CAFC1D
:103FD0000EB010BD9024012010B590B000240994BB
:103FE0000A940B94142104A80C94FCF723F92C4890
:103FF0000D940E9400940194029428490394016056
:104000005321C0E9011444F61F61C0E90314802163
:104010008161FFF7C5F808B1FDF7A4FC4FF48050AB
:10402000099009A91E48FFF7A1F908B1FDF79AFC0C
:104030001B48FFF7C7FA08B1FDF794FC0420049071
:104040005020CDE9050404A915480894FFF7B2FCF7
:1040500008B1FDF787FC0D940DA911480E94FFF7E8
:1040600057F808B1FDF77EFC0120CDE9004002942D
:10407000002269460A480394FFF712FA08B1FDF7D7
:1040800071FC02200090042269460548FFF708FAF7
:10409000002801D0FDF766FC10B010BD0004004000
:1040A000D824012010B586B000241748009401944C
:1040B0000294039404941349059401605221C0E9C9
:1040C000011440F2E731C0E9031480218161FFF758
:1040D00067F808B1FDF746FC4FF480500090694640
:1040E0000948FFF743F908B1FDF73CFC049404A923
:1040F00005480594FFF70CF8002801D0FDF732FCC5
:1041000006B010BD000800402025012010B586B083
:1041100000241748009401940294039404941349D2
:104120000594C0E900145321C0E9024180210461D3
:104130008161FFF735F808B1FDF714FC4FF48050AA
:10414000009069460A48FFF711F908B1FDF70AFC2B
:104150002020CDE9040404A90548FEF7D9FF002872
:1041600001D0FDF7FFFB06B010BD0000000C0040C1
:10417000682501200C4810B50A4901604FF4E1316F
:104180004160002181600C22C160C0E9041281619C
:10419000C161FFF73BFC002803D0BDE81040FDF7EC
:1041A000E1BB10BD00100140B0250120FEE7FEE795
:1041B0002DE9FE432E4CA088401C80B2A0800A2826
:1041C00054D110252BA0CDE900504FF6E07640F2F7
:1041D00095192B465022A0210296484604F01CFD5A
:1041E000D4ED040A9FED261A81EE200A10EE100A83
:1041F000FCF7D9F941EC100B22A153EC102B23480A
:1042000000F0CCFEDFF884804FF6FF77CDE9005850
:1042100010238222B4214846029704F0FDFC1CA022
:10422000CDE900501023502278210296484604F030
:10423000F3FC94ED060ADFED180A20EE200A10EEDA
:10424000100AFCF7B0F941EC100B14A153EC102B41
:10425000404600F0A3FECDE90058102350228C21E7
:104260004846029704F0D8FC0020A080BDE8FE83F9
:104270001800002050574D5F4628487A293A000020
:104280000024744925302E3366487A0040210120ED
:10429000447574793A0000000000C842252E326649
:1042A000202525007047704738B50A4C4FF6E0705E
:1042B000206040F2CF1001F08FFC2088002180B2F6
:1042C00000904FF4A0734FF4C872084601F06BFDE4
:1042D00038BD000000000020FEF78ABA30B593B068
:1042E00030216846FBF7A6FF14210CA8FBF7A2FFBC
:1042F0001D480025016841F080510160006800F010
:10430000805011901948016841F4804101600068B3
:10431000022400F4804011900120039010200490AA
:10432000009406940820CDE90750A820CDE909049F
:1043300004200B906846FEF7E1FB08B172B6FEE779
:104340000CA90F2081E831004FF4A0500F904FF4DA
:104350008050109005210CA8FEF7E4FA002801D047
:1043600072B6FEE713B030BD403802400070004026
:104370000248016841F470010160704788ED00E077
:10438000FEB5FE4E10244FF6E07500286ED00128D1
:104390007ED002287DD003287CD004287BD005283D
:1043A0007AD1012211463046FEF71FF9F4A0CDE97B
:1043B00000400021102350220295084604F02CFCF6
:1043C000012202213046FEF710F9EFA0CDE90040AE
:1043D000102350220F210295002004F01DFC012221
:1043E00004213046FEF701F9E9A0CDE90040102391
:1043F00050221E210295002004F00EFC012208210B
:104400003046FEF7F2F8E4A0CDE900401023502238
:104410002D210295002004F0FFFB012210213046DF
:10442000FEF7E3F8DEA0CDE90040102350223C2146
:104430000295002004F0F0FB012220213046FEF717
:10444000D4F8D9A0CDE90040102350224B21029589
:10445000002004F0E1FB012240213046FEF7C5F8C0
:1044600010235022D2A05A210295DEE001221146EB
:104470003046FEF7BAF8C2A0CDE900400021102373
:1044800050220295084604F0C7FB0022022104E0F6
:104490005DE0D0E03AE1F0E1CCE03046FEF7A5F88F
:1044A000C5A0CDE90040102350220F210295002025
:1044B00004F0B2FB002204213046FEF796F8BEA0BD
:1044C000CDE90040102350221E210295002004F067
:1044D000A3FB012208213046FEF787F8AEA0CDE904
:1044E0000040102350222D210295002004F094FB5F
:1044F000002210213046FEF778F8B1A0CDE9004047
:10450000102350223C210295002004F085FB00225C
:1045100020213046FEF769F8ABA0CDE9004010231A
:1045200050224B210295002004F076FB002240210E
:104530003046FEF75AF8A6A0CDE9004010235022DD
:104540005A210295002004F067FBA3A069E0002235
:1045500001213046FEF749F8A2A0CDE90040002134
:10456000102350220295084604F056FB0122022136
:104570003046FEF73AF884A0CDE9004010235022DF
:104580000F210295002004F047FB00220421304651
:10459000FEF72BF888A0CDE90040102350221E2101
:1045A0000295002004F038FB012208213046FEF776
:1045B0001CF879A0CDE90040102350222D2102954E
:1045C000002004F029FB012210213046FEF70DF8EF
:1045D00073A0CDE90040102350223C210295002019
:1045E00004F01AFB002220213046FDF7FEFF76A0E2
:1045F000CDE90040102350224B210295002004F009
:104600000BFB002240213046FDF7EFFF70A0CDE903
:104610000040102350225A210295002004F0FCFA99
:1046200072A02023502296210295CDE9004000205F
:1046300004F0F2FAFEBD002201213046FDF7D5FF5D
:1046400068A0CDE9004000211023502202950846C1
:1046500004F0E2FA002202213046FDF7C6FF56A020
:10466000CDE90040102350220F210295002004F0D4
:10467000D3FA012204213046FDF7B7FF44A0CDE96B
:104680000040102350221E210295002004F0C4FA9D
:10469000002208213046FDF7A8FF57A0CDE90040D1
:1046A000102350222D210295002004F0B5FA00229B
:1046B00010213046FDF799FF41A0CDE900401023BD
:1046C00050223C210295002004F0A6FA002220216D
:1046D0003046FDF78AFF3CA0CDE900401023502270
:1046E0004B210295002004F097FA00224021304629
:1046F000FDF77BFF36A0CDE90040102350225A2160
:104700000295002004F088FA3DA08AE700220121EA
:104710003046FDF76AFF33A0CDE9004000211023A9
:1047200050220295084604F077FA01220221304611
:10473000FDF75BFF14A0CDE90040102350220F21AC
:104740000295002004F068FA002204213046FDF7AB
:104750004CFF19A0CDE90040102350221E210295E4
:10476000002004F059FA012208213046FDF73DFFF0
:104770001023502208A02D21029547E0001402408A
:1047800054313A4F4E00000054323A4F4E00000070
:1047900054333A4F4E00000054343A4F4E0000005C
:1047A00054353A4F4E00000054363A4F4E00000048
:1047B00054373A4F4E00000054323A4F46460000FC
:1047C00054353A4F4646000054363A4F46460000AC
:1047D00054373A4F4646000042414F48452020207A
:1047E0002000000054313A4F464600004E4F524DD3
:1047F000414C20200000000054343A4F464600004F
:104800004A49455A4849202000000000CDE90040AF
:10481000002004F001FA002210213046FDF7E5FEE9
:10482000AFF26400CDE90040102350223C210295F4
:10483000002004F0F1F9002220213046FDF7D5FEDA
:10484000AFF27C00CDE90040102350224B210295AD
:10485000002004F0E1F9002240213046FDF7C5FEBA
:10486000AFF29400CDE90040102350225A21029566
:10487000002004F0D1F93AA0D3E60022012130460D
:10488000FDF7B3FEAFF2A400CDE9004000211023F4
:1048900050220295084604F0BFF901220221304659
:1048A000FDF7A3FEAFF22010CDE900401023502207
:1048B0000F210295002004F0AFF9002204213046B8
:1048C000FDF793FEAFF21010CDE900401023502207
:1048D0001E210295002004F09FF901220821304694
:1048E000FDF783FEAFF25010CDE9004010235022B7
:1048F0002D210295002004F08FF90122102130466D
:10490000FDF773FEAFF26810CDE90040102350228E
:104910003C210295002004F07FF90022202130463E
:10492000FDF763FEAFF26010CDE900401023502286
:104930004B210295002004F06FF9002240213046FF
:10494000FDF753FEAFF27810CDE90040102350225E
:104950005A210295002004F05FF903A061E60000EF
:10496000534855414E4758004A49414F5955450013
:104970000148FEF7DBBE0000D82401200148FEF705
:10498000D5BE000020250120F0B50268294C2A4D33
:104990002A4E2B4F2B4B4FF0804CA04209D0604544
:1049A00007D0A84205D0B04203D0B84201D0984207
:1049B00004D122F0700E4A6842EA0E02A0421BD0D7
:1049C000604519D0A84217D0B04215D0B84213D0D4
:1049D000984211D01C4DA8420ED01C4DA8420BD0BD
:1049E0001B4DA84208D01B4DA84205D01A4DA84225
:1049F00002D01A4DA84203D122F44075CA682A4356
:104A00004D6922F080022A4302608A68C2620A6805
:104A10008262A04201D0984201D10969016301215B
:104A200041610169C90703D0016921F001010161F8
:104A3000F0BD0000000001400004004000080040FC
:104A4000000C0040000401400040014000440140CF
:104A50000048014000180040001C004000200040B9
:104A600010B501F01F030121046A99408C430462D0
:104A7000016A9A401143016210BD10B5846842EA90
:104A8000032224F47F440A432243826010BD8268DB
:104A900022F070020A4342F0070181607047000073
:104AA000F0B5036A026A22F0010202624268846978
:104AB000124E24F073050C682C4323F002058B681A
:104AC0002B430D4DA84201D0B04205D123F0080779
:104AD000CB683B4323F00403A84201D0B04205D188
:104AE0004D6922F4407215438A692A434260846109
:104AF000496841630362F0BD0000014000040140C9
:104B0000F0B5026A036A23F0100303624368846904
:104B10000D6824F4E64444EA05248D6822F020025E
:104B200042EA05120F4D104EA84201D0B04206D104
:104B3000CF6822F0800242EA071222F04002A84227
:104B400001D0B04207D14D6923F4406343EA8503A5
:104B50008D6943EA85034360846149688163026229
:104B6000F0BD00000000014000040140F0B5026A01
:104B7000036A23F4807303624368C46922F40072F9
:104B800024F073050C68124E2C438D6842EA05220E
:104B90000E4DA84201D0B04206D1CF6822F4006287
:104BA00042EA072222F48062A84201D0B04207D133
:104BB0004D6923F4405343EA05138D6943EA051315
:104BC0004360C4614968C1630262F0BD00000140F6
:104BD0000004014030B5046A026A22F48052026285
:104BE0004268C3690D6823F4E64343EA05238D68F0
:104BF00024F4005444EA0534084DA84202D0084D7C
:104C0000A84204D14D6922F4804242EA85124260F2
:104C1000C36149680164046230BD000000000140C6
:104C20000004014070B5036800249A6822F0700502
:104C30004A682A4322F007050A682A439A604A68AC
:104C400012F00F0F31D11211082A2ED2DFE802F034
:104C50002E2E2E2E0B2127040B69D1E9022100688C
:104C6000FFF70BFF22E00A68052A10D00268136ADA
:104C7000156A25F00105156202689569096925F034
:104C8000F00545EA01119161006803620EE0012020
:104C900070BD0A698968006800F00AF806E00A69D0
:104CA0008968006800F056F800E00124204670BDD5
:104CB00010B5036A046A24F001040462846924F0D4
:104CC000F00444EA021423F00A020A4384610262F7
:104CD00010BD000070B5056A046A24F00104046286
:104CE0008469154EB04214D0B0F1804F11D0134EEC
:104CF000B0420ED0124EB0420BD0124EB04208D08D
:104D0000114EB04205D0114EB04202D0104EB0420A
:104D100003D124F00304144301E044F001041A0712
:104D200024F0F00444EA126225F00A0301F00A01BB
:104D300019438261016270BD00000140000400401F
:104D400000080040000C0040000401400040014009
:104D50000018004010B5036A046A24F010040462CD
:104D6000846923F0A00324F4704444EA023243EA45
:104D700001118261016210BD30B5046A056A25F037
:104D800010050562856925F4407545EA022222F482
:104D900070454FF6FF7202EA033224F0A0032A4363
:104DA000A02404EA011119438261016230BD016847
:104DB0000C3151E8002F22F4907241E80023002BBF
:104DC000F5D10168143151E8002F22F0010241E8C9
:104DD0000023002BF5D1016B012909D101680C31A9
:104DE00051E8002F22F0100241E80023002BF5D1FA
:104DF000202180F8421000210163704770B50446FD
:104E000000680169E26821F44051114301612169A0
:104E1000A068E26908436169114308432168CA68D0
:104E200049F20C639A430243CA6020684169A2694F
:104E300021F440711143416131492068884202D018
:104E40003049884202D1FDF717FE01E0FDF704FE6C
:104E5000E2690023192164253226B2F5004F626809
:104E600028D0A0FB0101930F9200FBF7ABF901469C
:104E7000B0FBF5F06FF01802504301EB800006EB39
:104E80000010B0FBF5F000F0F002B1FBF5F002EB22
:104E90000012B1FBF5F06FF01803584301EB8000EE
:104EA00006EB0010B0FBF5F000F00F002168104495
:104EB000886070BDA0FB010192185B41FBF782F98D
:104EC0000146B0FBF5F00201B1FBF5F06FF01803FD
:104ED000584301EB800006EBC000B0FBF5F000F09A
:104EE000F80002EB4002B1FBF5F0584301EB800003
:104EF00006EBC000B0FBF5F000F00700D6E70000BD
:104F000000100140001401402DE9F843984617466F
:104F10000D460446089E24E0701C22D0FDF76AFB73
:104F2000A0EB0800B0421AD8CEB12068C16849078A
:104F300017D5802D15D0402D13D00168C94309071E
:104F40000FD401680025406800902046FFF72FFF2E
:104F50000820606484F840500120BDE8F8830320F5
:104F6000FBE72068006835EA000004D00020B84262
:104F7000D2D00020F1E70120F9E7FEE70FB4054B9E
:104F800010B503A9044A029800F05EF910BC5DF860
:104F900014FB0000C15B00084C0000200FB4084B5C
:104FA00010B504A902AA039800F04EF9044602A91C
:104FB000002000F0CCFC204610BC5DF814FB000083
:104FC0004F5900080907090E002804DB00F1E02012
:104FD00080F80014704700F00F0000F1E02080F826
:104FE000141D704700B52DED048BB0EE409AF0EE25
:104FF000609A83B051EC190BFBF7DFFB41EC180B07
:1050000018EE100A18EE901A8DED008B002818BFCC
:105010000120084320F00040C0F17F6000F1E04033
:10502000C00F14D019EE101A19EE900A8DED009BE6
:10503000002918BF0121084320F00040C0F17F6023
:1050400000F1E040C00F04BF012000F035F8B0EEE1
:10505000480A03B0F0EE680ABDEC048B00BD10B541
:105060002DED028BB1EEC08A18EE100A20F0004040
:10507000C0F1FF40C00F0AD010EE100A20F000402F
:10508000C0F1FF40C00F04BF012000F015F8B0EEE2
:10509000480ABDEC028B10BD02E008C8121F08C10F
:1050A000002AFAD170477047002001E001C1121FA9
:1050B000002AFBD1704700000149086070470000DA
:1050C000500000202DE9FF5F82B00021DDE90430AF
:1050D000020DDDF840B0034318D044F61050A2F2A0
:1050E000FF3242431514119801281FD0A5EB0B0085
:1050F000401C5FEA000A4FF000064E4FDFF838917F
:10510000B046504615D5CAF1000413E011980124A9
:105110004AA3012801D16FEA0B010298119AC0E954
:105120000031C0E9024206B0BDE8F09FCBF10000BB
:10513000DFE704460021404A491842EB0450CDE91C
:10514000001012E0E00707D032463B464046494691
:10515000FBF722F98046894632463B4610461946FF
:10516000FBF71AF906460F466410002CEAD1DDE978
:105170000401DDE90023BAF1000F06DAFBF70CF9B0
:1051800042464B46FBF708F905E0FBF777F9424644
:105190004B46FBF773F904460E460022284BFBF7FB
:1051A00075FB03D84FF0FF30014607E00022254B86
:1051B00020463146FBF749F8FBF750FB102409E085
:1051C000002C0ADB0A220023FAF7FCFF039B303293
:1051D0001A55641E50EA0102F2D1641C039AC4F10C
:1051E00011031444119A012A03D0012208430DD15E
:1051F0000AE0084304D000204FF0110B119072E731
:10520000A3EB0B056D1E0DE05B4504DD4FF00002C6
:1052100005F1010504E003DA4FF00002A5F10105F4
:10522000002AECD002981199C0E90231C0E900458A
:1052300079E70000000014400000F03F300000005B
:105240000000F0430000E03F2DE9FF4F95B09A4683
:10525000884606460025EEE1252877D1002427461A
:10526000F94A0121039400E0044316F8013F203B72
:1052700001FA03F01042F7D130782A2811D06FF0EC
:105280002F033078A0F13002092A16D8039A44F08F
:10529000020402EB820203EB42021044761C0390EC
:1052A000EFE758F8042B0392002A03DA504244F443
:1052B0000054039044F00204761C30782E2816D156
:1052C00016F8010F44F004042A280DD06FF02F02C5
:1052D0003078A0F13003092B09D807EB870302EBE4
:1052E0004303C718761CF3E758F8047B761C307824
:1052F0006C280FD006DC4C2817D068280DD06A28FF
:1053000014D104E0742810D07A280FD10DE044F4B1
:1053100000140AE044F4801401E044F4401472786C
:10532000824202D104F58014761C761C30786628FF
:105330000BD013DC582877D009DC002875D045281D
:10534000F6D04628F4D047281AD193E118E0632814
:1053500035D0642879D0652812D18BE1702873D0BC
:1053600008DC6728F1D069286FD06E280DD06F282F
:1053700006D1ACE073282CD0752874D0782853D08F
:105380005246179990476D1C54E1C4F3025002280D
:1053900009D003280DD0D8F8001004280DD00D60D6
:1053A00008F1040846E1D8F80010EA17C1E90052F4
:1053B000F6E7D8F800100D80F2E70D70F0E718F866
:1053C000041B8DF8001000208DF80100EB46012031
:1053D00003E058F804BB4FF0FF3061074FF00001C5
:1053E00002D40DE009F101018946B9420FDA814585
:1053F000F8DB1BF809100029F4D108E009F10101DC
:1054000089468142FADB1BF809100029F6D103987E
:105410005346A0EB090721463846179A00F080FA58
:10542000284400EB090507E044E008E10DE01BF823
:10543000010B524617999047B9F10109F7D253462B
:1054400021463846179AF2E039E00A21C4F30252A5
:105450004FF0000B0091022A06D058F8040BC11738
:10546000032A09D00AE023E008F1070020F0070230
:10547000F2E80201904605E000B2C117042A01D10A
:1054800040B2C117002906DA0A460021404261EB0A
:1054900002012D2202E0220504D52B228DF80420E2
:1054A000012203E0E20701D02022F7E7914657E00E
:1054B0000A2100E010214FF0000B00910BE01021B9
:1054C0004FF0000B44F004040827009103E008208B
:1054D0004FF0000B0090C4F30252022A05D058F896
:1054E000040B0021032A08D008E008F1070020F08F
:1054F0000702F2E80201904603E080B2042A00D1DC
:10550000C0B24FF0000922072AD53278702A07D09E
:10551000DDF800C08CF0100C5CEA0B0C05D00EE03E
:1055200040228DF80420012208E050EA010306D051
:1055300030238DF804308DF8052002229146009B1F
:1055400083F0080353EA0B030AD150EA010201D1A8
:10555000620705D530228DF804204FF001097F1E27
:105560003278582A04D039A20C920CAA02920BE08D
:105570003BA2F9E75B46009AFAF724FE0C9B9B5C82
:10558000029A521E0292137050EA0102F2D102985E
:1055900004A9081A00F1200B600702D524F4803416
:1055A00000E001275F4502DDA7EB0B0000E00020D3
:1055B00000EB0B01009003984944401A0390E0036C
:1055C00006D453462146179A039800F0A9F90544DA
:1055D000002706E001A85246C05D179990476D1C50
:1055E0007F1C4F45F6DBE0030CD553462146179A46
:1055F000039800F095F9054404E0302052461799CD
:1056000090476D1C0099481E00900029F5DC08E0C9
:105610000298029952460078491C029117999047C6
:105620006D1CBBF10001ABF1010BF1DC5BE100F0A3
:1056300065F90544761C307800287FF40DAE19B06A
:105640002846BDE8F08F00000928010030313233D0
:1056500034353637383961626364656600000000AE
:105660003031323334353637383941424344454698
:1056700000000000600700D4062708F1070020F0B2
:105680000700F0E80223804603F0004C5FEA0C00BC
:1056900001D097A009E0200501D596A005E0E0071C
:1056A00001D095A001E0AFF24C001390307823F0C8
:1056B000004365280CD006DC452809D046281DD0BB
:1056C00047287FD13BE0662818D067287AD136E09A
:1056D0000021112F01DB112000E0781CCDE9000131
:1056E00004A90CA8FFF7EEFCDDE90D010C9A4FF0C0
:1056F000000B07F10109109200914EE04FF00040BD
:105700000097CDE9011004A90CA8FFF7DBFCDDE947
:105710000D020C9B0F994FF0000B914610930092D5
:1057200011B9791C00EB0109B7EB090003D4C0F1F2
:10573000FF3B07F10109A9EB0700019042E0012FAF
:1057400000DA01270021112F01DD112000E0384689
:10575000CDE9000104A90CA8FFF7B4FCDDE90D01B7
:105760000C9A00914FF0000BB946109221070FD40C
:10577000009A4A4503DA914601E0A9F10109B9F11D
:10578000010F05DD109AA9F10101515C3029F4D017
:10579000B84202DA10F1040F03DA0121CDE9011059
:1057A00010E0002803DC8344A9EB000102E0411C67
:1057B000494500DD8946A0EB0B00401C01904FF0ED
:1057C00000400290200705D40198484502DB4FF0C5
:1057D000FF30019000208DF84B0002980DF14B072F
:1057E000B0F1004F25D002200C902B200D90029894
:1057F00000280CDA404202902D200D9007E00A218B
:105800000298FAF7FFFE3031029007F8011D0C995B
:10581000481E0C900029F2DC02980028EFD1791E76
:105820000D980870307800F0200040F0450007F82F
:10583000020D11A8C01BC01D02901398007800B182
:10584000012000EB0901019801EBE071029801448D
:105850000398401A401E0390E00306D453462146A5
:10586000179A039800F05CF805441398007818B173
:105870005246179990476D1CE00323D553462146A5
:10588000179A039800F04CF805441BE0BBF1000F99
:1058900007DB0098584504DD1098179910F80B00A5
:1058A00001E0179930205246904701980BF1010B07
:1058B000401E05F10105019004D12E205246179992
:1058C00090476D1CB9F10001A9F10109DEDC05E08A
:1058D00017F8010B5246179990476D1C0299481E04
:1058E00002900029F4DC53462146179A03989EE65D
:1058F0002D0000002B000000200000002DE9F041E9
:10590000044600251E461746880404D405E039469F
:105910002020B0476D1C641EF9D52846BDE8F081F3
:105920002DE9F041044600251E469046C80301D5E6
:10593000302700E02027880404D505E0414638469A
:10594000B0476D1C641EF9D52846BDE8F0810A6891
:10595000531C0B601070704770B5214C2DED028BFD
:10596000A06808B1401E37E01E4B1F499FED1F8AFB
:1059700000204FF4805500BF03EB800292ED000A37
:1059800001EBC002401C82ED000A82ED018AA842B0
:10599000F2DB0123002214491548FAF7C3FF2A4617
:1059A00014491148FBF7F8FA012012492080608061
:1059B00091ED000ADFED100A5FF0000020EE200AF2
:1059C00084ED010A01EB8002401C82ED008A502820
:1059D000F8DB00F013F81920A060BDEC028B70BD5D
:1059E0000800002040E10020DC0000200000000052
:1059F00068DD0008DC80002000008039F0B52DED66
:105A0000048B89B000239FED628ADFF888C1624F62
:105A1000A020F1EE040A4FF4487E03ACA0F10A0185
:105A200000F10A0204EB830511E000BF07EB8106D9
:105A300096ED000A10EE106A664507DD80EE201A2A
:105A400095ED000A01EE010A85ED000A491C91421C
:105A5000ECDDA0305B1C7045E0DD002504EB850625
:105A60003068FAF7A0FD41EC100BFFF7BBFA51ECE0
:105A7000100BFAF7ABFD6D1C3060052DEEDB0398C3
:105A8000FAF791FD9DED070ADDED040A41EC190BD3
:105A900020EE000A00EEA00ADDED050A00EEA00AE5
:105AA000DDED060A00EEA00A10EE100AFAF77BFD03
:105AB00041EC100BFFF796FA53EC192B51EC100B3D
:105AC000FAF7DCFCFAF782FD00EE100A334B10EE19
:105AD000100A9FED339A984201DDB0EE490A324830
